:100000000C9462000C948A000C948A000C948A0070
:100010000C948A000C948A000C948A000C948A0038
:100020000C948A000C948A000C948A000C9413039C
:100030000C948A000C948A000C948A000C948A0018
:100040000C9471020C948A000C94E1020C94BB0293
:100050000C948A000C948A000C948A000C948A00F8
:100060000C948A000C948A000000000023002600F3
:10007000290000000000240027002A0000000000E2
:10008000250028002B0004040404040404040202D4
:100090000202020203030303030301020408102007
:1000A0004080010204081020010204081020000012
:1000B0000008000201000003040700000000000027
:1000C0000000140411241FBECFEFD8E0DEBFCDBF67
:1000D00011E0A0E0B1E0E6E1FFE002C005900D9282
:1000E000A231B107D9F721E0A2E1B1E001C01D9230
:1000F000A13EB207E1F710E0C2E6D0E004C02197CC
:10010000FE010E948307C136D107C9F70E9471041E
:100110000C9489070C940000E091DE01EC3088F526
:100120004091DF0128E830E0241B310947FD339579
:10013000220F331F220F331F8217930784F0409141
:10014000E00128E532E0241B310947FD3395220FF9
:10015000331F220F331F821793070CF49C01225088
:100160003109220F331F4FB7F8948E2F90E0FC0116
:10017000EE0FFF1FE80FF91FE754FE4F3283218374
:100180004FBF089590E0FC01E255FF4F2491FC0120
:10019000E656FF4F3491FC01EA57FF4FE491EE23FE
:1001A000C9F0222339F0233001F1A8F4213019F1EC
:1001B000223029F1F0E0EE0FFF1FE458FF4FA59128
:1001C000B4918FB7F894EC91611126C030953E231D
:1001D0003C938FBF08952730A9F02830C9F0243010
:1001E00049F7809180008F7D03C0809180008F77D8
:1001F00080938000DFCF84B58F7784BDDBCF84B55B
:100200008F7DFBCF8091B0008F778093B000D2CFED
:100210008091B0008F7DF9CF3E2BDACFCF93DF9363
:1002200090E0FC01E656FF4F24918A579F4FFC0156
:1002300084918823D1F090E0880F991FFC01EE583B
:10024000FF4FA591B491FC01E458FF4FC591D491A3
:1002500061110EC09FB7F8948C91E22FE0958E2328
:100260008C932881E223E8839FBFDF91CF9108958B
:100270008FB7F894EC91E22BEC938FBFF6CF3FB79A
:10028000F8948091180190911901A0911A01B091F0
:100290001B0126B5A89B05C02F3F19F00196A11D93
:1002A000B11D3FBFBA2FA92F982F8827BC01CD01C0
:1002B000620F711D811D911D42E0660F771F881F1F
:1002C000991F4A95D1F70895AF92BF92CF92DF92CE
:1002D000EF92FF920F931F93CF93DF936C017B01FB
:1002E0008B01040F151FEB015E01AE18BF08C0178C
:1002F000D10759F06991D601ED91FC910190F081FF
:10030000E02DC6010995892B79F7C501DF91CF91C1
:100310001F910F91FF90EF90DF90CF90BF90AF9023
:100320000895FC01538D448D252F30E0842F90E0FB
:10033000821B930B541710F0CF96089501970895E0
:10034000FC01918D828D981761F0A28DAE0FBF2FA9
:10035000B11D5D968C91928D9F5F9F73928F90E0FF
:1003600008958FEF9FEF0895FC01918D828D98176E
:1003700031F0828DE80FF11D858D90E008958FEFAB
:100380009FEF0895FC01918D228D892F90E0805C74
:100390009F4F821B91098F73992708958CE191E0FB
:1003A0000E94C20121E0892B09F420E0822F0895E8
:1003B00080E090E0892B29F00E94CE0181110C94FD
:1003C00000000895FC01A48DA80FB92FB11DA35AF8
:1003D000BF4F2C91848D90E001968F739927848F65
:1003E000A689B7892C93A089B1898C918370806488
:1003F0008C93938D848D981306C00288F389E02D29
:1004000080818F7D80830895EF92FF920F931F93D9
:10041000CF93DF93EC0181E0888F9B8D8C8D9813B7
:100420001AC0E889F989808185FF15C09FB7F894C3
:10043000EE89FF896083E889F9898081837080640F
:1004400080839FBF81E090E0DF91CF911F910F915A
:10045000FF90EF900895F62E0B8D10E00F5F1F4F69
:100460000F731127E02E8C8D8E110CC00FB607FC78
:10047000FACFE889F989808185FFF5CFCE010E9406
:10048000E201F1CFEB8DEC0FFD2FF11DE35AFF4F91
:10049000F0829FB7F8940B8FEA89FB898081806294
:1004A000CFCFCF93DF93EC01888D8823B9F0AA8951
:1004B000BB89E889F9898C9185FD03C0808186FD1F
:1004C0000DC00FB607FCF7CF8C9185FFF2CF80816E
:1004D00085FFEDCFCE010E94E201E9CFDF91CF9100
:1004E00008951F920F920FB60F9211242F933F93EE
:1004F0008F939F93AF93BF938091140190911501B7
:10050000A0911601B09117013091130123E0230F40
:100510002D3758F50196A11DB11D2093130180932D
:10052000140190931501A0931601B09317018091C7
:10053000180190911901A0911A01B0911B01019627
:10054000A11DB11D8093180190931901A0931A0168
:10055000B0931B01BF91AF919F918F913F912F91CC
:100560000F900FBE0F901F90189526E8230F02964C
:10057000A11DB11DD2CF1F920F920FB60F92112461
:100580002F933F934F935F936F937F938F939F939B
:10059000AF93BF93EF93FF938CE191E00E94E20150
:1005A000FF91EF91BF91AF919F918F917F916F914B
:1005B0005F914F913F912F910F900FBE0F901F9021
:1005C00018951F920F920FB60F9211242F938F93AD
:1005D0009F93EF93FF93E0912C01F0912D01808187
:1005E000E0913201F091330182FD1BC09081809136
:1005F00035018F5F8F7320913601821741F0E091B2
:100600003501F0E0E45EFE4F958F80933501FF9158
:10061000EF919F918F912F910F900FBE0F901F9090
:1006200018958081F4CF1F920F920FB60F9211246C
:100630002F933F934F935F936F937F938F939F93EA
:10064000AF93BF93CF93DF93EF93FF93809112010A
:10065000C091DD01D0E087FF24C010928500109288
:100660008400809112018F5F8093120180911201AA
:10067000082E000C990B8C179D0724F48091120111
:100680008C30C4F180918400909185000496803470
:100690009C4908F47AC0809184009091850004966A
:1006A00076C080911201082E000C990B8C179D07C3
:1006B000C4F6E09112018E2FEE0F990BFC01EE0FA4
:1006C000FF1FE80FF91FE754FE4F808186FFC9CF57
:1006D000E09112018E2FEE0F990BFC01EE0FFF1F20
:1006E000E80FF91FE754FE4F808160E08F730E948E
:1006F000C200B7CF2091840030918500E0911201B3
:100700008E2FEE0F990BFC01EE0FFF1FE80FF91F64
:10071000E754FE4F81819281820F931F909389004D
:1007200080938800E09112018E2FEE0F990BFC014F
:10073000EE0FFF1FE80FF91FE754FE4F808186FF81
:1007400011C0E09112018E2FEE0F990BFC01EE0FFC
:10075000FF1FE80FF91FE754FE4F808161E08F73A0
:100760000E94C200FF91EF91DF91CF91BF91AF91B5
:100770009F918F917F916F915F914F913F912F91B9
:100780000F900FBE0F901F90189580E49CE99093F6
:100790008900809388008FEF80931201E3CFCF927E
:1007A000DF92EF92FF920F931F93E82FF92F05C06E
:1007B000015011092109310961F1908196239417A3
:1007C000B9F305C0015011092109310911F19081D6
:1007D00096239413F7CFC12CD12CE12CF12C0AC015
:1007E0008FEFC81AD80AE80AF80A0C151D052E055D
:1007F0003F0579F080818623841791F36C2D7D2D40
:100800008E2D9F2D1F910F91FF90EF90DF90CF9035
:10081000089560E070E080E090E01F910F91FF90FC
:10082000EF90DF90CF90089510921F0110921E015B
:1008300088EE93E0A0E0B0E0809320019093210146
:10084000A0932201B093230184E091E090931D01D5
:1008500080931C0185EC90E09093290180932801FE
:1008600084EC90E090932B0180932A0180EC90E03F
:1008700090932D0180932C0181EC90E090932F01B7
:1008800080932E0182EC90E09093310180933001AF
:1008900086EC90E090933301809332011092350101
:1008A0001092360110923701109238018091DD01CB
:1008B0008C3098F491E0980F9093DD018093DE01E5
:1008C00090E0FC01EE0FFF1FE80FF91FE754FE4F09
:1008D00088EB9BE09283818308958FEF8093DE0104
:1008E0000895789484B5826084BD84B5816084BDA8
:1008F00085B5826085BD85B5816085BD80916E00BE
:10090000816080936E0010928100809181008260EE
:10091000809381008091810081608093810080912B
:1009200080008160809380008091B100846080931A
:10093000B1008091B00081608093B00080917A0016
:10094000846080937A0080917A00826080937A003C
:1009500080917A00816080937A0080917A0080682B
:1009600080937A001092C1008091DE018C3008F0F3
:1009700051C061E089E00E940E018091DE01282FC4
:1009800030E0F901EE0FFF1FE20FF31FE754FE4FB7
:100990009081907C996090831092DF011092E00129
:1009A0002CE0622F0E947707829FB001112430E073
:1009B00020E0AB01420F531FFA01EE0FFF1FE40FBF
:1009C000F51FE754FE4F908196FD16C02F5F3F4FF5
:1009D0002C30310571F781110FC01092800082E038
:1009E000809381001092850010928400B19A8091CA
:1009F0006F00826080936F00E091DE018E2F90E0A7
:100A0000FC01EE0FFF1FE80FF91FE754FE4F808136
:100A10008064808361E082E00E940E0160E084E0F7
:100A20000E940E01E0912C01F0912D0182E0808363
:100A3000E0912801F09129011082E0912A01F091C2
:100A40002B018FEC808310923401E0913001F09102
:100A5000310186E08083E0912E01F0912F018081A9
:100A600080618083E0912E01F0912F018081886068
:100A70008083E0912E01F0912F0180818068808336
:100A8000E0912E01F0912F0180818F7D808348E8D5
:100A9000242E312C58E5C52E52E0D52E64EB862E3F
:100AA000912CA12CB12C70E0E72E70E0F72E60E0C5
:100AB00082E00E94C20083E090E00197F1F761E0DC
:100AC00082E00E94C20083E290E00197F1F760E0CB
:100AD00082E00E94C200EEE9F0E06491EAE8F0E012
:100AE0008491E82FF0E0EE0FFF1FE859FF4F85914A
:100AF000949100E412E42FE030E0462F0E94CF03EF
:100B0000611571058105910529F06F5F7F4F8F4F4A
:100B10009F4F9F702091DF01E101C21BD10927FD8A
:100B2000D395CC0FDD1FCC0FDD1F0E947E0626E97A
:100B300033E44BE05DE30E94E20620E030E040E079
:100B40005FE30E94E2060E944606CE016B3071050B
:100B50002CF52E01DD0F660877088091E0019601E3
:100B6000281B310987FD3395220F331F220F331FB6
:100B7000032E000C440B550B24193509460957095F
:100B8000AAE5B0E00E940A06A50194010E94EB05C7
:100B9000DA01C901840D951DA61DB71D0E948C00A8
:100BA0000E943F012B013C010E943F01641975091D
:100BB00086099709683E734081059105A8F3E11401
:100BC000F10409F474CF0E94CE01882309F46FCF99
:100BD0000E9400006CCF052E97FB1EF400940E942B
:100BE000020657FD07D00E94150607FC03D04EF4FD
:100BF0000C94020650954095309521953F4F4F4FEC
:100C00005F4F089590958095709561957F4F8F4FB8
:100C10009F4F08950E943706A59F900DB49F900D99
:100C2000A49F800D911D11240895A1E21A2EAA1BE4
:100C3000BB1BFD010DC0AA1FBB1FEE1FFF1FA2178C
:100C4000B307E407F50720F0A21BB30BE40BF50B89
:100C5000661F771F881F991F1A9469F76095709512
:100C6000809590959B01AC01BD01CF010895A29F95
:100C7000B001B39FC001A39F700D811D1124911D70
:100C8000B29F700D811D1124911D08950E944D0683
:100C90006894B1110C94DC0608950E94C10688F096
:100CA0009F5798F0B92F9927B751B0F0E1F0660F30
:100CB000771F881F991F1AF0BA95C9F714C0B13071
:100CC00091F00E94DB06B1E008950C94DB06672FDB
:100CD000782F8827B85F39F0B93FCCF386957795A0
:100CE0006795B395D9F73EF4909580957095619589
:100CF0007F4F8F4F9F4F0895E89409C097FB3EF4B4
:100D000090958095709561957F4F8F4F9F4F992358
:100D1000A9F0F92F96E9BB279395F69587957795D6
:100D20006795B795F111F8CFFAF4BB0F11F460FF96
:100D30001BC06F5F7F4F8F4F9F4F16C0882311F0EE
:100D400096E911C0772321F09EE8872F762F05C002
:100D5000662371F096E8862F70E060E02AF09A959D
:100D6000660F771F881FDAF7880F9695879597F992
:100D7000089557FD9058440F551F59F05F3F71F08B
:100D80004795880F97FB991F61F09F3F79F08795F2
:100D90000895121613061406551FF2CF4695F1DF7B
:100DA00008C0161617061806991FF1CF869571050B
:100DB000610508940895E894BB2766277727CB013F
:100DC00097F908950E94F5060C9466070E9458074B
:100DD00038F00E945F0720F0952311F00C944F0724
:100DE0000C94550711240C94DC060E94B90670F38C
:100DF000959FC1F3950F50E0551F629FF001729FC0
:100E0000BB27F00DB11D639FAA27F00DB11DAA1FCE
:100E1000649F6627B00DA11D661F829F2227B00D1B
:100E2000A11D621F739FB00DA11D621F839FA00DA6
:100E3000611D221F749F3327A00D611D231F849FF6
:100E4000600D211D822F762F6A2F11249F5750404D
:100E50009AF0F1F088234AF0EE0FFF1FBB1F661FC8
:100E6000771F881F91505040A9F79E3F510580F091
:100E70000C944F070C94DC065F3FE4F3983ED4F3E8
:100E8000869577956795B795F795E7959F5FC1F735
:100E9000FE2B880F911D9695879597F9089597F9E0
:100EA0009F6780E870E060E008959FEF80EC089510
:100EB00000240A9416161706180609060895002439
:100EC0000A9412161306140605060895092E0394B3
:100ED000000C11F4882352F0BB0F40F4BF2B11F427
:100EE00060FF04C06F5F7F4F8F4F9F4F0895991B26
:100EF00079E004C0991F961708F0961B881F7A9511
:100F0000C9F780950895EE0FFF1F0590F491E02D2D
:060F10000994F894FFCFE4
:100F1600000000000402640191015102C201A00117
:020F2600B40114
:00000001FF
